:020000040800F2
:1000000000000220550400089D0400089D0400081B
:100010009D0400089D0400089D04000800000000E5
:100020000000000000000000000000009D04000827
:100030009D040008000000009D0400089D040008C5
:100040009D0400089D0400089D0400089D0400080C
:100050009D0400089D0400089D0400089D040008FC
:100060009D0400089D0400089D0400089D040008EC
:100070009D0400089D0400089D0400089D040008DC
:100080009D0400089D0400089D0400089D040008CC
:100090009D0400089D0400089D0400089D040008BC
:1000A0009D0400089D0400089D0400089D040008AC
:1000B0009D0400089D0400089D0400089D0400089C
:1000C0009D0400089D0400089D0400089D0400088C
:1000D0009D0400089D0400089D0400089D0400087C
:1000E0009D0400089D0400089D0400089D0400086C
:1000F0009D0400089D0400089D0400089D0400085C
:100100009D0400089D0400089D0400089D0400084B
:100110009D0400089D0400089D0400089D0400083B
:100120009D0400089D0400089D0400089D0400082B
:100130009D0400089D0400089D0400089D0400081B
:100140009D0400089D0400089D0400089D0400080B
:100150009D0400089D0400089D0400089D040008FB
:100160009D0400089D0400089D0400089D040008EB
:100170009D0400089D0400089D0400089D040008DB
:100180009D0400089D04000810B5054C237833B980
:10019000044B13B10448AFF300800123237010BD5A
:1001A00008000020000000000805000808B5034B07
:1001B0001BB103490348AFF3008008BD00000000F5
:1001C0000C0000200805000830B50024E3B221FA35
:1001D00003F5012D04F10104F8D101685B0003244B
:1001E0009C4021EA0401012A016001BF01689A4094
:1001F0000A43026030BD10B5002421FA04F3012B3C
:1002000005D1A3402AB142691343436110BD0134B3
:10021000F3E7426922EA0303F7E7002221FA02F337
:10022000012B06D1016993400B4214BF012000202D
:1002300070470132F2E70000054BD3F8302842F056
:100240000102C3F83028D3F8300800F001007047ED
:10025000003002404FF0402240F28363C2F808347D
:10026000D2F80C3443F4005343F00803C2F80C34C2
:10027000704701384FF0402210F8013F4BB94FF062
:100280004023D3F800241206FBD50A22C3F8042425
:100290007047D2F800140906FBD5C2F80434EBE726
:1002A000F0B5002801F1FF34BABF40420125002516
:1002B000274600234FF00A0CB0FBFCF60CFB16029D
:1002C000303207F8012F0246092A9E46304603F1D4
:1002D0000103F1DC1DB12D22CA540EF102030022EC
:1002E000CA541944013B981A904200DCF0BD14F83E
:1002F000010F11F8015D257001320870F3E700006D
:100300001FB5FFF7A7FFFFF797FF134B1348D3F86D
:10031000304801222021FFF757FF0122202104F05D
:100320000104FFF768FFFFF778FF08B144F002040B
:100330000A48436983F0200343612021FFF76DFFE2
:1003400038B1204601A9FFF7ABFF01A8FFF791FFE5
:10035000FEE744F00400F5E70030024000000240F0
:10036000364AD2F8883043F4700382B0C2F888303D
:10037000334B1A68002142F001021A6099601A6832
:1003800022F0847222F480321A602E4A5A601A686F
:1003900022F480221A60D960009101911A6842F417
:1003A00080321A601A6802F400320192009A013217
:1003B0000092019A1AB9009AB2F5A04FF2D11B68C7
:1003C00013F4003318BF01230193019B012B2ED19D
:1003D0001B4B1D491A6C42F080521A640A6842F4A1
:1003E00040420A609A689A609A6842F400429A60B1
:1003F0009A6842F4A0529A60144A5A601A6842F00D
:1004000080721A601A689201FCD5114A40F2057197
:1004100011609A6822F003029A609A6842F0020220
:100420009A60074A936803F00C03082BFAD1034B38
:100430004FF000629A6002B0704700BF00ED00E02C
:10044000003802401030002400700040195440076A
:10045000003C0240002103E00B4B5B584350043149
:100460000A480B4B42189A42F6D30A4A02E000238C
:1004700042F8043B084B9A42F9D3FFF771FF00F0B2
:100480000FF8FFF73DFF70470C0500080000002043
:10049000080000200800002024000020FEE70000E3
:1004A00070B50F4B0F4DAB42A3EB050607D0B6104E
:1004B000002455F8043B01349847A642F9D800F0CF
:1004C00017F8094D094B5E1BAB424FEAA60606D052
:1004D000002455F8043B01349847A642F9D870BD72
:1004E0000000002000000020000000200400002088
:1004F000F8B500BFF8BC08BC9E467047F8B500BF11
:0C050000F8BC08BC9E46704700000000DC
:08050C00AD010008890100089F
:040000050800045596
:00000001FF
