:020000040800F2
:1000000000000220E9030008310400083104000860
:100010003104000831040008310400080000000029
:100020000000000000000000000000003104000893
:100030003104000800000000310400083104000809
:1000400031040008310400083104000831040008BC
:1000500031040008310400083104000831040008AC
:10006000310400083104000831040008310400089C
:10007000310400083104000831040008310400088C
:10008000310400083104000831040008310400087C
:10009000310400083104000831040008310400086C
:1000A000310400083104000831040008310400085C
:1000B000310400083104000831040008310400084C
:1000C000310400083104000831040008310400083C
:1000D000310400083104000831040008310400082C
:1000E000310400083104000831040008310400081C
:1000F000310400083104000831040008310400080C
:1001000031040008310400083104000831040008FB
:1001100031040008310400083104000831040008EB
:1001200031040008310400083104000831040008DB
:1001300031040008310400083104000831040008CB
:1001400031040008310400083104000831040008BB
:1001500031040008310400083104000831040008AB
:10016000310400083104000831040008310400089B
:10017000310400083104000831040008310400088B
:10018000310400083104000810B5054C237833B958
:10019000044B13B10448AFF300800123237010BD5A
:1001A00008000020000000009405000808B5034B7B
:1001B0001BB103490348AFF3008008BD00000000F5
:1001C0000C00002094050008034AD2F8303843F0B0
:1001D0000103C2F8303870470030024030B50024C7
:1001E000E3B221FA03F5012D04F10104F8D101680D
:1001F0005B0003249C4021EA0401016001689A40ED
:100200000A43026030BD002221FA02F3012B06D11D
:10021000016993400B4214BF012000207047013256
:10022000F2E74FF0402240F28363C2F80834D2F87C
:100230000C3443F4005343F00803C2F80C34704705
:1002400001384FF0402210F8013F4BB94FF04023E6
:10025000D3F800241206FBD50A22C3F80424704701
:10026000D2F800140906FBD5C2F80434EBE700000D
:1002700008B5FFF7D6FFFFF7A7FF164B164CD3F8CC
:100280003038DB074CBF15481548FFF7D9FF202150
:1002900001222046FFF7A2FF636943F02003636158
:1002A0002021FFF7B0FF78B10E48FFF7C9FF63695F
:1002B000094883F0200363612021FFF7A4FF28B9D8
:1002C0000948FFF7BDFFFEE70848EEE70848FFF7DB
:1002D000B7FFF8E700300240000002409C0400082D
:1002E000B9040008DC0400084805000815050008EA
:1002F0006F050008364AD2F8883043F4700382B0A4
:10030000C2F88830334B1A68002142F001021A60AB
:1003100099601A6822F0847222F480321A602E4AA0
:100320005A601A6822F480221A60D9600091019103
:100330001A6842F480321A601A6802F4003201929C
:10034000009A01320092019A1AB9009AB2F5A04FB0
:10035000F2D11B6813F4003318BF01230193019BF2
:10036000012B2ED11B4B1D491A6C42F080521A648E
:100370000A6842F440420A609A689A609A6842F4B5
:1003800000429A609A6842F4A0529A60144A5A60F5
:100390001A6842F080721A601A689201FCD5114AFC
:1003A00040F2057111609A6822F003029A609A681F
:1003B00042F002029A60074A936803F00C03082B8C
:1003C000FAD1034B4FF000629A6002B0704700BF51
:1003D00000ED00E0003802401030002400700040C2
:1003E00019544007003C0240002103E00B4B5B58CE
:1003F000435004310A480B4B42189A42F6D30A4A3A
:1004000002E0002342F8043B084B9A42F9D3FFF77D
:1004100071FF00F00FF8FFF72BFF704798050008F9
:100420000000002008000020080000202400002018
:10043000FEE7000070B50F4B0F4DAB42A3EB050676
:1004400007D0B610002455F8043B01349847A64263
:10045000F9D800F017F8094D094B5E1BAB424FEA83
:10046000A60606D0002455F8043B01349847A6425E
:10047000F9D870BD0000002000000020000000201E
:1004800004000020F8B500BFF8BC08BC9E467047C9
:10049000F8B500BFF8BC08BC9E4670474C6F673A81
:1004A000204750494F4120636C6F636B2069732074
:1004B000656E61626C65642E004C6F673A20466120
:1004C000696C656420746F20656E61626C6520479D
:1004D00050494F4120636C6F636B21005465737406
:1004E0003A2050696E20697320636F72726563747D
:1004F0006C792073657420746F20484947482061E7
:100500006674657220656E61626C696E6720636CEB
:100510006F636B2100546573743A2050696E2069D3
:1005200073204E4F542073657420746F20484947E0
:100530004820616674657220656E61626C696E67E1
:1005400020636C6F636B2E00546573743A2050699E
:100550006E20746F67676C656420746F204C4F5712
:10056000207375636365737366756C6C79210054D1
:100570006573743A2050696E20746F67676C6520EC
:100580006661696C65642C207374696C6C204849E1
:0805900047482E0000000000A6
:08059800AD0100088901000813
:04000005080003E903
:00000001FF
