:020000040800F2
:10000000000002204D040008950400089504000833
:1000100095040008950400089504000800000000FD
:10002000000000000000000000000000950400082F
:1000300095040008000000009504000895040008DD
:10004000950400089504000895040008950400082C
:10005000950400089504000895040008950400081C
:10006000950400089504000895040008950400080C
:1000700095040008950400089504000895040008FC
:1000800095040008950400089504000895040008EC
:1000900095040008950400089504000895040008DC
:1000A00095040008950400089504000895040008CC
:1000B00095040008950400089504000895040008BC
:1000C00095040008950400089504000895040008AC
:1000D000950400089504000895040008950400089C
:1000E000950400089504000895040008950400088C
:1000F000950400089504000895040008950400087C
:10010000950400089504000895040008950400086B
:10011000950400089504000895040008950400085B
:10012000950400089504000895040008950400084B
:10013000950400089504000895040008950400083B
:10014000950400089504000895040008950400082B
:10015000950400089504000895040008950400081B
:10016000950400089504000895040008950400080B
:1001700095040008950400089504000895040008FB
:10018000950400089504000810B5054C237833B990
:10019000044B13B10448AFF300800123237010BD5A
:1001A00008000020000000000005000808B5034B0F
:1001B0001BB103490348AFF3008008BD00000000F5
:1001C0000C00002000050008034AD2F8303843F044
:1001D0000103C2F8303870470030024010B50023E8
:1001E000012903F101040ED8DBB20468590003238E
:1001F0008B4024EA03030360046802F001038B4090
:100200002343036010BD49082346E9E710B50024E5
:1002100021FA04F3012B05D1A3402AB1426913430B
:10022000436110BD0134F3E7426922EA0303F7E7B3
:10023000002221FA02F3012B06D1016993400B42FF
:1002400014BF0120002070470132F2E74FF0402236
:1002500040F28363C2F80834D2F80C3443F40053FC
:1002600043F00803C2F80C34704701384FF04022C5
:1002700010F8013F4BB94FF04023D3F80024120689
:10028000FBD50A22C3F804247047D2F800140906EB
:10029000FBD5C2F80434EBE7F0B5002801F1FF34D8
:1002A000BABF404201250025274600234FF00A0C23
:1002B000B0FBFCF60CFB1602303207F8012F0246A9
:1002C000092A9E46304603F10103F1DC1DB12D22BF
:1002D000CA540EF102030022CA541944013B981A71
:1002E000904200DCF0BD14F8010F11F8015D25709B
:1002F00001320870F3E700001FB5FFF7A7FFFFF713
:1003000063FF134B1348D3F8304801222021FFF735
:1003100065FF202104F00104FFF778FFFFF788FF55
:1003200008B144F002040B48436983F020034361A1
:100330002021FFF77DFF38B1204601A9FFF7ACFF70
:1003400001A8FFF792FFFEE744F00400F5E700BFC5
:100350000030024000000240364AD2F8883043F4B0
:10036000700382B0C2F88830334B1A68002142F023
:1003700001021A6099601A6822F0847222F48032B5
:100380001A602E4A5A601A6822F480221A60D960D4
:10039000009101911A6842F480321A601A6802F4DE
:1003A00000320192009A01320092019A1AB9009A21
:1003B000B2F5A04FF2D11B6813F4003318BF01232C
:1003C0000193019B012B2ED11B4B1D491A6C42F04E
:1003D00080521A640A6842F440420A609A689A603D
:1003E0009A6842F400429A609A6842F4A0529A6075
:1003F000144A5A601A6842F080721A601A689201B0
:10040000FCD5114A40F2057111609A6822F003028E
:100410009A609A6842F002029A60074A936803F071
:100420000C03082BFAD1034B4FF000629A6002B024
:10043000704700BF00ED00E000380240103000249B
:100440000070004019544007003C0240002103E0C6
:100450000B4B5B58435004310A480B4B42189A42ED
:10046000F6D30A4A02E0002342F8043B084B9A42C2
:10047000F9D3FFF771FF00F00FF8FFF73DFF70476A
:1004800004050008000000200800002008000020EB
:1004900024000020FEE7000070B50F4B0F4DAB426B
:1004A000A3EB050607D0B610002455F8043B013431
:1004B0009847A642F9D800F017F8094D094B5E1B82
:1004C000AB424FEAA60606D0002455F8043B01349F
:1004D0009847A642F9D870BD000000200000002017
:1004E0000000002004000020F8B500BFF8BC08BCE4
:1004F0009E467047F8B500BFF8BC08BC9E467047E2
:0405000000000000F7
:08050400AD01000889010008A7
:040000050800044D9E
:00000001FF
